:030000000200A457
:0C00A400787FE4F6D8FD75810902008128
:100094003F065B4F666D7D077F6F777C395E7971B4
:0B00B000EF1FAC0670011E4C70F62222
:1000030075900FE590640F60747FE87E031200B073
:10001300E590640F6067AF90EF24F5601024FE60F5
:100023001114601324077012E4F509800D75090497
:100033008008750908800375090C7590F0AF90EF7F
:100043002450601124E0601124F0601324707015B3
:1000530085090980100509800C05090509800674C6
:10006300032509F509E508C394325011E59064F0BE
:0E007300600B7FE87E031200B0050880E822D3
:10008100D2A2D2A3C2A4120003E50990009493F571
:030091008080ED7F
:00000001FF
