:0300000002008873
:0C008800787FE4F6D8FD758107020003C4
:10004000C2A18F807F057E00120051D2A27F057E63
:0100500000AF
:10005100D3EF9400EE940040147D6E7C00ED1D7092
:0D006100011CED4C70F7EF1F70E61E80E3F0
:01006E00226F
:08009400C2A0120040C2A2222A
:08009C00D2A0120040C2A22212
:10006F007F021200947F061200947F0C1200947F7F
:09007F00381200947F0102009484
:10000300C2A1C2A0C2A212006F7FC01200947F548B
:1000130012009C7FC11200947F6512009C7FC21264
:1000230000947F6D12009C7FC31200947F701200B6
:0D0033009C7FC41200947F3A12009C80FE56
:00000001FF
