:1001710011082050656368696E20536369656E6379
:10018100652000111B30313233343536373839416F
:0601910042434445460014
:10011100120198E4F51AF52C7408252CF8E6FF1263
:1001210001C8052CE52CC3941040ED12008FE51A8F
:1001310060F9E4F51A7FC01201BE741B2519F8E6B7
:06014100FF1201C880E579
:10008F0075900FE590640F60781201B1E590640FE1
:10009F00606F751A0175900FAF90EF24F560102403
:1000AF00FE601114601324077012E4F519800D75AA
:1000BF001901800875190280037519037590F012E4
:1000CF0001B1AF90EF2450601124E0601124F06073
:1000DF001124707013851919800E7404800674082A
:1000EF008002740C2519F519C3E52D648094B25064
:1000FF000DE59064F060071201B1052D80EAE4F57B
:01010F002DC2
:0101100022CC
:0C01B1007F017E267D82DDFEDEFADFF697
:0101BD00221F
:10014700C2A58F807F017E00120158D2A77F057E4E
:0101570000A7
:10015800D3EF9400EE9400400F7DC77C01DCFEDDF8
:08016800FAEF1F70EB1E80E8A6
:01017000226C
:0A01BE00C2A7C2A6120147C2A72281
:0A01C800C2A7D2A6120147C2A72267
:100198007F381201BE7F0C1201BE7F061201BE7F9E
:0901A800011201BE7F800201BEBC
:03000000020003F8
:0C000300787FE4F6D8FD75812D02004ADC
:10000F00020111E493A3F8E493A34003F68001F2F5
:10001F0008DFF48029E493A3F85407240CC8C333F2
:10002F00C4540F4420C8834004F456800146F6DFC1
:10003F00E4800B0102040810204080900171E47EDF
:10004F00019360BCA3FF543F30E509541FFEE493B6
:10005F00A360010ECF54C025E060A840B8E493A37D
:10006F00FAE493A3F8E493A3C8C582C8CAC583CAA8
:10007F00F0A3C8C582C8CAC583CADFE9DEE780BE60
:010197000067
:00000001FF
