:030000000206995C
:0C069900787FE4F6D8FD75811B0206E0B6
:1008D800C2A58F807F017E001208E9D2A77F057E1E
:0108E800000F
:1008E900D3EF9400EE9400400F7DC77C01DCFEDD60
:0808F900FAEF1F70EB1E80E80E
:0109010022D3
:0A09A700C2A7C2A61208D8C2A722F8
:0A09B100C2A7D2A61208D8C2A722DE
:100943007F381209A77F0C1209A77F061209A77F18
:09095300011209A77F800209A727
:0509CD00000000000025
:10098900438901758CFC758A18D2AFD2A9D28C2201
:0405A6008E0A8F0B1F
:1005AA00780C7C007D007BFF7A0979CD7E007F057F
:1005BA0012039BC3E50A64809480501A7FC612090D
:1005CA00A77F2D1209B1E50B150B7002150A630BF3
:1005DA00FF630AFF8000AC0AAD0BEC1202118F1404
:1005EA008E138D128C11E4FFFE7DC87C40AB14AAD9
:1005FA0013A912A811120106E4FBFAF9783F1200B6
:10060A001512024A8E0A8F0BAE0AAF0B7C277D1099
:10061A001203C18F0CAE0AAF0B7C277D101203C1E7
:10062A007E037FE8CFCDCFCECCCE1203C18F0DAEE5
:10063A000AAF0B7C037DE81203C17E007F64CFCD35
:10064A00CFCECCCE1203C18F0EAE0AAF0B7C007D8B
:10065A00641203C17E007F0ACFCDCFCECCCE120367
:10066A00C18F0F7FCA1209A7E50D2430FF1209B105
:10067A00E50E2430FF1209B17F2E1209B1E50F24CD
:0F068A0030FF1209B17FDF1209B17F430209B1BE
:10045A007F821209A7E51BC4540F2430FF1209B189
:10046A00E51B540F2430FF1209B17F2D1209B1E5A3
:10047A0019C4540F2430FF1209B1E519540F24305E
:10048A00FF1209B17F2D1209B1E518C4540F2430A7
:10049A00FF1209B1E518540F2430FF1209B17FC1C8
:1004AA001209A7E517C4540F2430FF1209B1E51742
:1004BA00540F2430FF1209B17F3A1209B1E516C46C
:1004CA00540F2430FF1209B1E516540F2430FF12DD
:1004DA0009B17F3A1209B1E515C4540F2430FF124D
:1004EA0009B1E515540F2430FF1209B1E51A14B405
:1004FA00070040030205A590050F75F003A4C58304
:10050A0025F0C5837302052402053202054502055A
:10051A005802056B02057E0205917F8B1209A77F9F
:10052A004D1209B17F6F801F7F8B1209A77F54126A
:10053A0009B17F751209B17F65805D7F8B1209A7AA
:10054A007F571209B17F651209B17F6E804A7F8B8E
:10055A001209A77F541209B17F681209B17F758009
:10056A00377F8B1209A77F461209B17F721209B130
:10057A007F6980247F8B1209A77F531209B17F619B
:10058A001209B17F7480117F8B1209A77F53120958
:0C059A00B17F751209B17F6E1209B12209
:10087D001208AC1209891209021209437F8012096C
:10088D00A77F321209B17F811209A77F301209B1FA
:0F089D007FCD1209A77F431209B112097380FBA7
:03000B00020725C4
:10072500C0E0C0F0C083C082C0D075D000C000C09A
:0D07350001C002C003C004C005C006C0071B
:10074200758CFC758A180509E50970020508646450
:100752004508700DF508F50912095C1205A6120488
:010762005A3C
:10076300D007D006D005D004D003D002D001D000EA
:0B077300D0D0D082D083D0F0D0E03294
:10092500D3EF9400EE940040147D6E7C00ED1D70B5
:0D093500011CED4C70F7EF1F70E61E80E313
:010942002292
:1008AC00C2B77F467E00EF1FAC0670011E4C70F67F
:1008BC00D2B7E4FEFF30B7110FBF00010ED3EF9497
:0B08CC0088EE941340EF7F00227F01B4
:0108D70022FE
:0C07C8001208AC7F017E001209257FCCD6
:1007D400E4FBFAC2B7050CE50C7002050BEF1392AB
:1007E400B7750B00750C06E50C150CAC0B700215F7
:1007F4000B4C70F3D2B7EFC313FF0BBB00010AEB32
:0508040064084A70CEFB
:0108090022CC
:10080A007D087C00C2B70FBF0000D2B70FBF00003F
:10081A000FBF0000A2B7E433C43333335480FBE97B
:10082A00C3134BF97E007F04EF1FAA0670011E4A0C
:0D083A0070F6ED1D70011CED4C70C9AF0192
:01084700228E
:080003001207C87F440207D474
:0809C5001207C87FBE0207D42F
:10095C00E4FFFE1200031209C512080A8F0A1208DE
:06096C000AEFFEE50AFFA0
:010972002262
:0E09990081838587898B8D80828486888A8CF5
:0909BB00071500002024120717A3
:10084800C2B500C2B600D2B500E4FEEF1392B4EF11
:10085800C313FFD2B600C2B6000EBE08EEE4FEED2A
:100868001392B4EDC313FDD2B600C2B6000EBE0893
:04087800EEC2B50017
:01087C002259
:10077E00C2B500C2B600D2B500E4FDEF1392B4EFDD
:10078E00C313FFD2B600C2B6000DBD08EE00E4FDE5
:10079E00A2B4E433FFC43333335480FCEEC3134CA2
:1007AE00FED2B600C2B6000DBD08E5C2B500D2B687
:0907BE0000C2B400D2B400AF0681
:0107C700220F
:10090200E4FD7F8E120848E4FCEC9009A093FF748A
:10091200152CF8E6FD1208480CBC07ED7D807F8E91
:0309220002084880
:10097300E4FBEB90099993FF12077E74152BF8A6FD
:05098300070BBB07EDAE
:01098800224C
:10000E000202B6E86480F8E933E83360110460F068
:10001E00ED33EC337009E8FCE9FDEAFEEBFF220458
:10002E0060DED3EB9FEA9EE99DE8C2E78CF0C2F753
:10003E0095F0400CE8CCF8E9CDF9EACEFAEBCFFB1F
:10004E0012028185D0F05804700320D5B3E80470F5
:10005E00075002B2D50202C092D5EC0460F7E4CC90
:10006E00C0E0C398F8603B94186008400DD0E0FBE8
:10007E00020298E4FBFAC9FC8028E830E406E4C9E1
:10008E00FBE4CAFCE830E305E4C9CACBFCE854073C
:10009E006010F8C3E913F9EA13FAEB13FBEC13FC47
:1000AE00D8F130F52FC3E49CFCEF9BFFEE9AFEEDEA
:1000BE0099FDD0E0FBEF4E4D4C701222DB03020295
:1000CE00BDEC2CFCEF33FFEE33FEED33FDED30E7F0
:1000DE00EB020298EF2BFFEE3AFEED39FDD0E0FB7E
:1000EE0050130BBB00030202C0ED13FDEE13FEEF27
:0800FE0013FFEC13FC02029851
:10010600EC4D6011E8497017ED33EC3304600DE4F3
:10011600FCFFFEFD22E933E8330470F80202B61252
:10012600028158046009E4CC248150062850090253
:1001360002C02840030202BDC0E0EB4A7044B98009
:1001460006D0E0FB0202ACEF4E701CBD8008EBFF50
:10015600EAFEE9FD80EBE98DF0A4FEE5F00201EF91
:10016600E9CDF9EAFEEBFFEF89F0A4FCE5F0CE89D4
:10017600F0A42EFFE435F0CD89F0A42DFEE435F091
:100186008067EF4E7005BD80D780C3EF8BF0A4ACBF
:10019600F0EE8BF0A42CFCE435F0F8EF8AF0A42CFA
:1001A600E5F038FCE433CB8DF0A42CFCE5F03BF80D
:1001B600EE8AF0A42CFCE5F038F8E433CF89F0A4FD
:1001C6002CFCE5F038CF3400CE89F0A42FFFE5F003
:1001D6003EFEE433C98DF0A42EFEE5F039CD8AF05B
:1001E600A42FFFE5F03EFEE43DFD33D0E0FB5007D3
:1001F6000BBB000F0202C0EC2CFCEF33FFEE33FE0C
:06020600ED33FD02029839
:10020C0075F020800E75F010800575F0087D007E6D
:10021C00007F003392D530D5031203F7EC33401036
:10022C00EF33FFEE33FEED33FDEC33FCD5F0ED2276
:0E023C00E5F0247EA2D513CC92E7CDCEFF22B2
:10024A00EDD2E7CD33EC3392D524814006E4FFFEAC
:10025A00FDFC22FCE4CFCECDCC24E0501174FF800B
:10026A00EDC3CC13CCCD13CDCE13CECF13CF0470A8
:07027A00F030D5DE0203F7AE
:10028100E9D2E7C933E833F892D5EDD2E7CD33ECC3
:0702910033FC5002B2D5223C
:10029800EC30E7100FBF000C0EBE00080DBD0004C7
:1002A8000BEB6014A2D5EB13FCED92E7FD2274FF73
:1002B800FCFDFEFF22E480F8A2D574FF13FC7D80CC
:0302C800E480EFE0
:1006A50002087DE493A3F8E493A34003F68001F2E6
:1006B50008DFF48029E493A3F85407240CC8C33356
:1006C500C4540F4420C8834004F456800146F6DF25
:1006D500E4800B01020408102040809009BBE47EF1
:1006E500019360BCA3FF543F30E509541FFEE4931A
:1006F500A360010ECF54C025E060A840B8E493A3E1
:10070500FAE493A3F8E493A3C8C582C8CAC583CA0B
:10071500F0A3C8C582C8CAC583CADFE9DEE780BEC3
:0109C4000032
:1002CB00E709F608DFFA8046E709F208DFFA803E15
:1002DB0088828C83E709F0A3DFFA8032E309F60802
:1002EB00DFFA8078E309F208DFFA807088828C836A
:1002FB00E309F0A3DFFA806489828A83E0A3F6081E
:10030B00DFFA805889828A83E0A3F208DFFA804CF7
:10031B0080D280FA80C680D4806980F280338010CE
:10032B0080A680EA809A80A880DA80E280CA803337
:10033B0089828A83ECFAE493A3C8C582C8CCC583AF
:10034B00CCF0A3C8C582C8CCC583CCDFE9DEE7807F
:10035B000D89828A83E493A3F608DFF9ECFAA9F0FE
:10036B00EDFB2289828A83ECFAE0A3C8C582C8CC54
:10037B00C583CCF0A3C8C582C8CCC583CCDFEADE6D
:10038B00E880DB89828A83E493A3F208DFF980CCCF
:10039B0088F0EF60010E4E60C388F0ED2402B404C8
:1003AB000050B9F582EB2402B4040050AF2323456F
:0603BB00822390031B7376
:1003C100C2D5EC30E709B2D5E4C39DFDE49CFCEE57
:1003D10030E715B2D5E4C39FFFE49EFE120405C3C6
:1003E100E49DFDE49CFC800312040530D507C3E4C1
:0603F1009FFFE49EFE22C6
:0E03F700C3E49FFFE49EFEE49DFDE49CFC2217
:10040500BC000BBE0029EF8DF084FFADF022E4CCDB
:10041500F875F008EF2FFFEE33FEEC33FCEE9DECA4
:10042500984005FCEE9DFE0FD5F0E9E4CEFD22EDEA
:10043500F8F5F0EE8420D21CFEADF075F008EF2F34
:10044500FFED33FD4007985006D5F0F222C398FD25
:050455000FD5F0EA22C2
:00000001FF
