:030000000200A358
:0C00A300787FE4F6D8FD7581090200802A
:100093003F065B4F666D7D077F6F777C395E7971B5
:0B00AF00EF1FAC0670011E4C70F62223
:1000030075900FE590640F60737FE87E031200AF75
:10001300E590606875900FAF90EF24F5601024FEB3
:10002300601114601324077012E4F509800D75093B
:1000330001800875090280037509037590F0AF907C
:10004300EF2450601124E0601124F06011247070DB
:1000530013850909800E7404800674088002740CE9
:100063002509F509E508C394325011E59064F06061
:0D0073000B7FE87E031200AF050880E82235
:10008000C2A2C2A3C2A4120003E50990009393F593
:030090008080F37A
:00000001FF
