:0300000002009566
:0C009500787FE4F6D8FD75810B0200A115
:100076003F065B4F666D7D077F6F777C395E7971D2
:040086007FE87E038E
:0B008A00EF1FAC0670011E4C70F62248
:1000580020B10B12008620B102050B30B1FD20B093
:0E0068000C12008620B003E4F50B30B0FD2230
:10003800E50B75F06484AFF0EF75F00A8485F0087D
:10004800EF75F00A84F509E50B75F06484F50A226A
:10000300E4FDED14600B14601024027012C2A28090
:1000130002D2A2C2A3C2A48006C2A2D2A3C2A47463
:10002300082DF8E690007693F580120086E4F580BB
:040033000DBD02CE2F
:0100370022A6
:0B00A10012005812003812000380F516
:00000001FF
