:0300000002009962
:0C009900787FE4F6D8FD7581070200A511
:040077007FF47E0193
:10007B00D3EF9400EE940040147D6E7C00ED1D7068
:0D008B00011CED4C70F7EF1F70E61E80E3C6
:010098002245
:10000300E4FBEBB408005065900012F82828730253
:10001300002A02003302003C02004502004E0200A7
:1000230057020060020069C2A7120077D2A7803D81
:10003300C2A6120077D2A68034C2A5120077D2A539
:10004300802BC2A4120077D2A48022C2A31200770D
:10005300D2A38019C2A2120077D2A28010C2A11229
:100063000077D2A18007C2A0120077D2A00BEB6465
:0300730008708F83
:010076002267
:0800A50075A0FF12000380F8B2
:00000001FF
