:0300000002009E5D
:0C009E00787FE4F6D8FD7581070200AA07
:10008E003F065B4F666D7D077F6F777C395E7971BA
:10007000D3EF9400EE940040147D6E7C00ED1D7073
:0D008000011CED4C70F7EF1F70E61E80E3D1
:01008D002250
:10000300E4FBEBB40800504D900012F8282873026B
:10001300002A02002E02003602003A0200420200C9
:100023004602004E020052C2A28002D2A2C2A3C262
:10003300A48022C2A28002D2A2D2A3C2A48016C2EA
:10004300A28002D2A2C2A3D2A4800AC2A28002D2F8
:10005300A2D2A3D2A4EB90008E93F5807FC87E003A
:0C006300120070E4F5800BEB640870964E
:01006F00226E
:0500AA0012000380FBC1
:00000001FF
