:0300000002009A61
:0C009A00787FE4F6D8FD758107020003B2
:05008A00FD7F107E2740
:0B008F00EF1FAC0670011E4C70F62243
:100003007DFEE4FB8DA0ED25E0440112008AED6442
:100013007F60040BBB08EDE4FB8DA0EDC3134480AC
:1000230012008AED64FE60040BBB08EDE4FB8DA0B7
:10003300ED25E012008AED60040BBB08F17D7FE43F
:10004300FB8DA0EDC31312008A0BBB08F47D3FE4C4
:10005300FB8DA0ED1313543F44C0FD7FA07E861299
:10006300008FED64FC60040BBB04E6E4FBEBC3947C
:1000730004508D8DA0ED25E025E04403FD7FA07E97
:070083008612008F0B80E6DE
:00000001FF
