:10000E001702170318031902150316031703170314
:10001E001703180319021603170318021803170300
:10002E001502180317031802100315031602150301
:10003E00160317021703180319021A031B031F03D3
:10004E001F031703180319021603170318031703C8
:10005E0018031F031F0216031703180317031803B1
:10006E00200320021F031B031F662003210320030E
:10007E001F031B031F661F031B031903190315031D
:10008E001A661A03190315031503170316661704C8
:10009E001804180319031F031B031F6620032103F3
:1000AE0020031F031B031F661F031B0319031903E2
:1000BE0015031A661A03190319031F031B031F00E6
:1000CE001A031A031A031B031B031A03190319023B
:1000DE001703151715031603170318031704180E25
:1000EE0018031704180E18661703180317031803BE
:1000FE00200320021F031B031F662003210320037E
:10010E001F031B031F661F041B0E1B03190319037A
:10011E0015031A661A03190315031503170316663A
:10012E0017041804180319031F031B031F6620036B
:10013E00210320031F031B031F661F031B03190349
:10014E00190315031A661A03190319031F031B0358
:10015E001F00180218031A03190D1503150218664D
:10016E0016021702150000000F011502160217667F
:10017E0018031702150216011502100215000F01C1
:10018E001502160217021703180319021502186634
:10019E0017031902160317031600170119021B0283
:1001AE001B701A031A01190219031A031B021A0DE6
:1001BE00190317001866180319021A02190C180DE4
:1001CE00170316011102110310030F0C1002150074
:1001DE001F011A01186619031A011B021B031B03C8
:1001EE001B0C1A0D190317001F011A0118661903AB
:1001FE001A011002100310031A0C180D1703160023
:10020E000F011502160217701803170215031503B6
:10021E0016661603160216031503100210011101BD
:10022E00116610030F0C1A02190216031603186634
:10023E0018031802170316031900000017031603FC
:10024E0017011603170316031501100315031602E3
:10025E00160D1703160315031003100E15040F01C8
:10026E0017031603170116031703160315011003C0
:10027E0015031602160D17031603150310031503A7
:10028E00160117031603170116031703160315019C
:10029E00100315031602160D17031603150310038C
:1002AE00100E15040F0117031903190119031A0370
:1002BE0019031701160316031602160D170316035C
:1002CE0015031003100D1500190319031A031F034C
:1002DE001B031B031A03170D16031603160D170126
:1002EE001703170319031A021A021003170D160328
:1002FE001601170319031903170319021F021B0313
:10030E001A031A0E1B0417021A031A031A0E1B04E1
:10031E001A03190317031603170D160317031901F2
:10032E00190319031A031F031B031B031A03170DCB
:10033E0016031603160317011703170319031A02E0
:10034E001A021003170D16031601170319031903CA
:10035E00170319031F021B031A031A0E1B0417029D
:10036E001A031A031A0E1B0417161A031A031A0E6F
:10037E001B041A031903170316030F0210031500AB
:10038E0000000106011501260137014A015D0171C8
:10039E000188019F01B801D201EE00020405070990
:0803AE000B01020408102040BD
:03000300013C00BD
:10098C00C295753EFF7540FF853E8D85408B438932
:0C099C0011D2A9C2ABC28CC28ED2AF2215
:03000B0002091FC8
:04091F00C0E0C0D0A4
:10092300B295853D8C853F8A053BE53BB4640D75E7
:0C0933003B00053CE53CB40503753C00AE
:05093F00D0D0D0E03231
:0E03B600750C00750D03750E01750F68E4FDE2
:0803C4008B088A09890A8D0BE0
:1003CC00E4F528E528250BFFD3940B401A74F42F81
:1003DC0025E02490F582E43403F58374019325E041
:1003EC00FFE49333FE8013EF25E02490F582E43490
:1003FC0003F583E493FE740193FFE52825E02410B4
:10040C00F8A60608A607E50D6401450C7018E5284A
:10041C0025E02410F8C000E6FE08E67802CEC313EF
:10042C00CE13D8F9801EE50D6403450C701CE5282D
:10043C0025E02410F8C000E6FE08E67802C333CEAF
:10044C0033CED8F9D000A60608F60528E528640CAA
:10045C0060030203CFE4F533F534AB08AA09A90A0B
:10046C00853482853383120680600D74022534F541
:10047C0034E43533F53380E2E4F529F52AAB08AAE8
:10048C0009A90A852A82852983120680F535E52A71
:10049C002401FFE435298F82F583120680F536ACF2
:1004AC000EAD0F7E2E7FE01206AD8E2B8F2CE52C21
:1004BC007802CEC313CE13D8F9F5328E317802C33D
:1004CC0033CE33CED8F9FF7C007D051206ADC3E5E3
:1004DC00329FF532E5319EF531C28CD28EC3E52ABE
:1004EC009534E5299533400302067DE53575F00A10
:1004FC008485F037E53575F00A8475F00A84ADF023
:10050C00E53575F06484FFE5379003A7932F25E05C
:10051C002410F8E6FE08E6FFE5376047BD010BEF57
:10052C007802CEC313CE13D8F9FFBD030BEF7802BC
:10053C00C333CE33CED8F9FFAB07AA06E4F9F87F64
:10054C00507EC3FDFC1208ABE47B0AFAF9F81207E3
:10055C0002C3E49FFFE49EF53D8F3FF58CE53F24FD
:10056C000CF58AE53675F00A84E5F09003AF93F547
:10057C0038E53675F00A8475F00A8485F039E5366D
:10058C0075F06484F53AE538FD7C00AE2BAF2C1287
:10059C0006ADAB07AA06E53AB4010BEAC313FEEBB2
:1005AC00132BFBEE3AFAE5396401603DE539702E08
:1005BC00E538D39404500DC3EB9532F52EEA953102
:1005CC00F52D8029EBAE027802C333CE33CED8F9A9
:1005DC00FF7C007D051206AD8E2D8F2E800FEAC399
:1005EC0013F52DEB13F52E80048A2D8B2EE5377029
:1005FC0004F52DF52EC3EB952EF530EA952DF52F40
:10060C00E537601BD28C852E28E528D39400400F4B
:10061C00308FFD853E8D85408BC28F152880EAE595
:10062C0030452F601DC28CC295853028E528D394A7
:10063C0000400F308FFD853E8D85408BC28F152875
:10064C0080EA7402252AF52AE43529F529AB08AA93
:10065C0009A90A852A82F583120680F535E52A2434
:10066C0001FFE435298F82F583120680F5360204EA
:03067C00E9C2953B
:01067F002258
:040944007F0A7E00A8
:10094800E4FDFCC3ED9FEC9E5015E4FBFA0BBB00E5
:0F095800010AEB64784A70F50DBD00010C80E4D4
:01096700226D
:1009680020B00912094420B0037F012220B10912E6
:10097800094420B1037F022220B20812094420B2A0
:04098800027F0322C5
:1008EF0012098C120968EF24FE600F14601724029E
:1008FF0070F17BFF7A00790E80067BFF7A017976A3
:10090F001203B680DE7BFF7A02794A1203B680D3D8
:0300000002081FD4
:0C081F00787FE4F6D8FD75814002086681
:10068000BB010CE58229F582E5833AF583E022502F
:1006900006E92582F8E622BBFE06E92582F8E22279
:0D06A000E58229F582E5833AF583E4932293
:1006AD00BC000BBE0029EF8DF084FFADF022E4CC31
:1006BD00F875F008EF2FFFEE33FEEC33FCEE9DECFA
:1006CD00984005FCEE9DFE0FD5F0E9E4CEFD22ED40
:1006DD00F8F5F0EE8420D21CFEADF075F008EF2F8A
:1006ED00FFED33FD4007985006D5F0F222C398FD7B
:0506FD000FD5F0EA2218
:10070200E88FF0A4CC8BF0A42CFCE98EF0A42CFC96
:100712008AF0EDA42CFCEA8EF0A4CDA8F08BF0A414
:100722002DCC3825F0FDE98FF0A42CCD35F0FCEB73
:100732008EF0A4FEA9F0EB8FF0A4CFC5F02ECD3938
:0F074200FEE43CFCEAA42DCE35F0FDE43CFC22A5
:1008AB00C2D5E830E70FB2D5E4C39BFBE49AFAE478
:1008BB0099F9E498F8EC30E717B2D51208E1120772
:1008CB008DE4C39BFBE49AFAE499F9E498F880036E
:1008DB0012078D30D50DE4C39FFFE49EFEE49DFD12
:0408EB00E49CFC226B
:10082B000208EFE493A3F8E493A34003F68001F2EC
:10083B0008DFF48029E493A3F85407240CC8C333CE
:10084B00C4540F4420C8834004F456800146F6DF9D
:10085B00E4800B0102040810204080900003E47E2A
:10086B00019360BCA3FF543F30E509541FFEE49392
:10087B00A360010ECF54C025E060A840B8E493A359
:10088B00FAE493A3F8E493A3C8C582C8CAC583CA84
:10089B00F0A3C8C582C8CAC583CADFE9DEE780BE3C
:0100060000F9
:1007510075F008758200EF2FFFEE33FECD33CDCC5F
:1007610033CCC58233C5829BED9AEC99E5829840E2
:100771000CF582EE9BFEED9AFDEC99FC0FD5F0D6BF
:10078100E4CEFBE4CDFAE4CCF9A88222B800C1B9E9
:100791000059BA002DEC8BF084CFCECDFCE5F0CB27
:1007A100F97818EF2FFFEE33FEED33FDEC33FCEB60
:1007B10033FB10D703994004EB99FB0FD8E5E4F91B
:1007C100FA227818EF2FFFEE33FEED33FDEC33FC08
:1007D100C933C910D7059BE99A4007EC9BFCE99AFC
:1007E100F90FD8E0E4C9FAE4CCFB2275F010EF2F41
:1007F100FFEE33FEED33FDCC33CCC833C810D70741
:100801009BEC9AE899400AED9BFDEC9AFCE899F87B
:0E0811000FD5F0DAE4CDFBE4CCFAE4C8F9220E
:00000001FF
