:0300000002007883
:0C007800787FE4F6D8FD758107020003D4
:040056007FF47E01B4
:10005A00D3EF9400EE940040147D6E7C00ED1D7089
:0D006A00011CED4C70F7EF1F70E61E80E3E7
:010077002266
:10000300C2A7120056D2A7120056C2A6120056D299
:10001300A6120056C2A5120056D2A5120056C2A4BB
:10002300120056D2A4120056C2A3120056D2A31233
:100033000056C2A2120056D2A2120056C2A112004A
:1000430056D2A1120056C2A0120056D2A0120056D8
:03005300020003A5
:00000001FF
