:03000000020003F8
:0C000300787FE4F6D8FD75811702004AF2
:1000D9000808619149252549916108107FBFDFEF23
:0400E900F7FBFDFE26
:0B00EE00EF1FAC0670011E4C70F622E4
:10008F00C2B6C2B5E4FEEFC4131313540124FF929A
:10009F00B4EF25E0FFD2B60000C2B60EBE08E7D21D
:0500AF00B50000C2B520
:0100B4002229
:1000B500E4FD74102DF8E6F58074082DF8E6FF12BE
:1000C500008F7F647E001200EEE4FF12008F0DBDED
:0400D50008E080DCE3
:10000F000200B5E493A3F8E493A34003F68001F252
:10001F0008DFF48029E493A3F85407240CC8C333F2
:10002F00C4540F4420C8834004F456800146F6DFC1
:10003F00E4800B01020408102040809000D9E47E78
:10004F00019360BCA3FF543F30E509541FFEE493B6
:10005F00A360010ECF54C025E060A840B8E493A37D
:10006F00FAE493A3F8E493A3C8C582C8CAC583CAA8
:10007F00F0A3C8C582C8CAC583CADFE9DEE780BE60
:0100ED000012
:00000001FF
