:100194003F065B4F666D7D077F6F777C395E7971B3
:0101A400005A
:0901CB00010A00010C37010B0CC4
:0B01B500EF1FAC0670011E4C70F6221C
:1001A500438901758CFC758A18D2A9D2AFD28C22ED
:10009A00E4FDEDB40800504D9000A9F82828730239
:1000AA0000C10200C50200CD0200D10200D902003F
:1000BA00DD0200E50200E9C2A28002D2A2C2A3C206
:1000CA00A48022C2A28002D2A2D2A3C2A48016C253
:1000DA00A28002D2A2C2A3D2A4800AC2A28002D261
:1000EA00A2D2A3D2A4740D2DF8E6F5807F647E0017
:0C00FA001201B5E4F5800DED640870966D
:0101060022D6
:10014E00E50A75F00A84E5F090019493F50DE50A41
:10015E0075F00A8493F50E750F40E50C75F00A8460
:10016E00E5F093F510E50C75F00A8493F511751210
:10017E0040E50B75F00A84E5F093F513E50B75F089
:06018E000A8493F514221F
:0B01C0001201A512014E12009A80F8F7
:03000B00020107E8
:10010700C0E0C0D0758CFC758A180509E509700236
:100117000508C394E8E508940340277508007509A6
:1001270000050AE50A943C4019750A00050CE50C20
:10013700943C400E750C00050BE50B9418400375B5
:070147000B00D0D0D0E03224
:0300000002000EED
:0C000E00787FE4F6D8FD758114020055DF
:10001A000201C0E493A3F8E493A34003F68001F23B
:10002A0008DFF48029E493A3F85407240CC8C333E7
:10003A00C4540F4420C8834004F456800146F6DFB6
:10004A00E4800B01020408102040809001CBE47E7A
:10005A00019360BCA3FF543F30E509541FFEE493AB
:10006A00A360010ECF54C025E060A840B8E493A372
:10007A00FAE493A3F8E493A3C8C582C8CAC583CA9D
:10008A00F0A3C8C582C8CAC583CADFE9DEE780BE55
:0101D400002A
:00000001FF
