:100003007FBFDFEFF7FBFDFE0000494949493E0092
:100013000000214345493100000000217F01000019
:100023000040402000000000384040200000000055
:1000330038444221000000003844422101020400F8
:1000430038444221010204383844422121424438D1
:10005300387C7E3F3F7E7C3870F8FC7E7EFCF870F7
:10006300387C7E3F3F7E7C3870F8FC7E7EFCF870E7
:10007300387C7E3F3F7E7C3870F8FC7E7EFCF870D7
:08008300387C7E3F3F7E7C3893
:10010B00E4FDFCC3ED9FEC9E5015E4FBFA0BBB002A
:0F011B00010AEB64794A70F50DBD00010C80E418
:01012A0022B2
:1000E500C2B6C2B5E4FEEFC4131313540124FF9244
:1000F500B4EF25E0FFD2B60000C2B60EBE08E7D2C7
:05010500B50000C2B5C9
:01010A0022D2
:10008B00E4F509F50AE4F9E4FF1200E5E990000351
:10009B0093F580E50875F008A4240BF582E4340091
:1000AB00F583E58229F582E43583F583E493FF122A
:1000BB0000E57F027E0012010B0508E508B4100372
:1000CB00E4F50809B908C0050AE50A70020509C379
:0A00DB009432E509940040AD80A6C0
:0300000002012BCF
:0C012B00787FE4F6D8FD75810A02008B95
:00000001FF
