:0300000002000EED
:0C000E00787FE4F6D8FD75810E020055E5
:0A020E003F065B4F666D7D077F6FB2
:03000300010E00EB
:1001E800758901758CFC758A18D2AFD2A9D28C2278
:0B01F800EF1FAC0670011E4C70F622D9
:10009A00E50EFB7C037DE8FF7E0012011F740E2F24
:1000AA00F58274023EF583E493F50A7C037DE8AF9A
:1000BA00037E0012011FAA04AB057D647C00AF0316
:1000CA00AE0212011F740E2FF58274023EF583E40C
:1000DA0093F50B7D647C00AF03AE0212011FAA04E4
:1000EA00AB057D0A7C00AF03AE0212011F740E2F0E
:1000FA00F58274023EF583E493F50C7D0A7C00AF29
:10010A0003AE0212011F740E2DF58274023CF583B0
:05011A00E493F50D2245
:10017400E4FDED14600E146013146014240370166F
:10018400C2A28002D2A2C2A3C2A4800AC2A28002D6
:10019400D2A2D2A3C2A4C374039D240AF8E6F580B4
:0E01A4007F647E001201F8E4F5800DBD04C4F6
:0101B200222A
:0B0203001201E812009A12017480F84A
:03000B000201B33C
:1001B300C0E0C0D0758CFC758A180509E50970028A
:1001C3000508B4E81BE508B40316750800750900B3
:1001D300050ED3E50E940F748094A74003750E00AB
:0501E300D0D0D0E03295
:10001A00020203E493A3F8E493A34003F68001F2F7
:10002A0008DFF48029E493A3F85407240CC8C333E7
:10003A00C4540F4420C8834004F456800146F6DFB6
:10004A00E4800B0102040810204080900003E47E43
:10005A00019360BCA3FF543F30E509541FFEE493AB
:10006A00A360010ECF54C025E060A840B8E493A372
:10007A00FAE493A3F8E493A3C8C582C8CAC583CA9D
:10008A00F0A3C8C582C8CAC583CADFE9DEE780BE55
:0100060000F9
:10011F00BC000BBE0029EF8DF084FFADF022E4CCC4
:10012F00F875F008EF2FFFEE33FEEC33FCEE9DEC8D
:10013F00984005FCEE9DFE0FD5F0E9E4CEFD22EDD3
:10014F00F8F5F0EE8420D21CFEADF075F008EF2F1D
:10015F00FFED33FD4007985006D5F0F222C398FD0E
:05016F000FD5F0EA22AB
:00000001FF
