:030000000200C833
:0C00C800787FE4F6D8FD75810B02000E75
:1000A7003F065B4F666D7D077F6F777C395E7971A1
:0100B7000048
:10007B00D2A2D2A3D2A4E50A9000A793F580050AD9
:09008B00E50AB40903E4F50A22B8
:1000B800758901758CFC758A18D2AFD2A9D28C22A9
:10000E001200B8E509B4E8FBE508B403F6E4F50818
:10001E00F50912007BE50BB408005045900031F84D
:10002E0028287302004902004E02005302005802B3
:10003E00005D02006202006702006C75A07F8021E5
:10004E0075A0BF801C75A0DF801775A0EF8012759C
:10005E00A0F7800D75A0FB800875A0FD800375A02C
:0D006E00FE050BE50BB4089BE4F50B809636
:03000B000200945C
:10009400C0E0758CFC758A180509E509700205082D
:0300A400D0E03277
:00000001FF
